:1000000045C0000060C000005EC000005CC0000091
:100010005AC0000058C0000056C0000054C0000084
:1000200052C0000050C000004EC000004CC0000094
:100030004AC00000F8C0000046C0000044C00000F4
:1000400042C0000040C000003EC000003CC00000B4
:100050003AC0000038C0000036C0000034C00000C4
:1000600032C0000030C000002EC000002CC00000D4
:100070002AC0000028C0000026C0000024C00000E4
:1000800022C0000020C000001EC0000011241FBEBE
:10009000CFEFD0E4DEBFCDBF16E0A0E0B1E0E0EDF1
:1000A000FEE000E00BBF02C007900D92A439B1073B
:1000B000D9F727E0A4E9B6E001C01D92A930B20744
:1000C000E1F722D503C79CCFEAE7F0E08081806E9C
:1000D00080830895883060F0ECE7F0E080818083D1
:1000E0008FE000008150E9F78FE080939406089537
:1000F00080937C00F5CF181619065CF00895000077
:1001000021503109E1F74F5F5F4F4817590729F434
:10011000089540E050E077E063E0272F362FEFCFDF
:100120005E9888B95F9A00005F9882E090E0E3CF24
:10013000089581E0F5CF0895813118F48158F0CF0A
:1001400008958155EDCF089584E690E0D4DF88E3EB
:10015000E7DF86E0E5DF8FE0E3DF81E0E1DF8AE0F3
:1001600090E0C9CF08955E9A88B95F9A00005F98C1
:1001700081E090E0C0CF08950F931F93CF93DF935A
:10018000182FEB01D6DF8881882351F001E0010FA1
:10019000812FD2DF8991E7DF102F88818111F6CF7F
:1001A000DF91CF911F910F91089585E093DF89EF43
:1001B00090E00197F1F700C00000809178009091E5
:1001C0007900089586E086DF89EF90E00197F1F7E6
:1001D00000C00000809178009091790008958BE034
:1001E000809381008DE790E0909389008093880050
:1001F00082E080936F0010928500109284008091BD
:10020000100190911101A0911201B09113018093FE
:10021000E4069093E506A093E606B093E7068FB751
:1002200080688FBF08951F920F920FB60F9211240E
:100230008F939F93AF93BF938091E4069091E506CF
:10024000A091E606B091E7060197A109B109809354
:10025000E4069093E506A093E606B093E706892BA3
:100260008A2B8B2B99F481E08093E8068091100112
:1002700090911101A0911201B09113018093E406B5
:100280009093E506A093E606B093E706BF91AF9181
:100290009F918F910F900FBE0F901F901895909186
:1002A000E30698138093E30608959091E20698136D
:1002B0008093E20608959091E10698138093E106F9
:1002C0000895CF93DF93EC0180E004DF89EF90E0A5
:1002D0000197F1F700C00000209719F0219729F04D
:1002E00008C0C091E306D0E006C0C091E306D0E0AC
:1002F00002C0C0E0D0E0C130D10561F48091780047
:10030000909179008E3D934018F481E0D4DF02C0D3
:1003100080E0D1DFCE01DF91CF9108959091E0068A
:1003200098138093E0060895CF93DF93EC0181E06A
:10033000D1DE89EF90E00197F1F700C0000020972F
:1003400019F0219729F008C0C091E306D0E006C05B
:10035000C091E306D0E002C0C0E0D0E0C130D105DA
:1003600061F480917800909179008A3C934018F470
:1003700081E0D4DF02C080E0D1DFCE01DF91CF91F8
:1003800008959091DF0698138093DF060895CF9328
:10039000DF93EC0187E09EDE89EF90E00197F1F7B3
:1003A00000C00000209719F0219729F008C0C091E3
:1003B000E306D0E006C0C091E306D0E002C0C0E092
:1003C000D0E0C130D10561F480917800909179003E
:1003D0008A3C934018F481E0D4DF02C080E0D1DF92
:1003E000CE01DF91CF910895E9EDF6E088E392E048
:1003F000918380831382128214820895E9EDF6E0DE
:1004000081E794E09183808313821282148208959D
:10041000E9EDF6E081E794E0918380831382128214
:1004200081E084830895E9EDF6E02081318188E35D
:1004300092E0821B930B9183808381E084831382FB
:10044000128208958091D9069091DA0621E734E06E
:10045000281B390B82179307C8F4E9EDF6E021E079
:100460003481311120E02483E9EDF6E029E332E024
:10047000A901481B590B518340832281338187E0B6
:1004800090E0821B930B938382830895281739078A
:1004900038F4895392409093DA068093D9060895F0
:1004A0001092DA061092D9060895E9EDF6E08281FD
:1004B0009381DC01A050BF4F2C912093DE06019662
:1004C0009383828325B9089720F01092DC0610925E
:1004D000DB060895E9EDF6E082819381DC01A85FF7
:1004E000BE4F2C912093DE0601969383828325B91B
:1004F000089720F01092DC061092DB060895CF9347
:10050000DF93EC0185E0E6DD89EF90E00197F1F7FC
:1005100000C00000C230D10509F444C034F4209773
:1005200071F0C130D10591F067C0C430D10509F434
:1005300059C014F1C530D10509F44AC05DC080919D
:10054000E206882309F4A9C04FDF69C080917800D2
:10055000909179008C32914020F08091E2068111D7
:1005600002C061DF90C08091D9069091DA06892B94
:1005700009F055C04DDF69C08091780090917900F5
:100580008C32914020F08091E206811102C05ADF46
:1005900067C08091D9069091DA06892B09F04AC08C
:1005A00037DF53C080917800909179008C32914070
:1005B00020F08091E206811102C044DF51C0809199
:1005C000D9069091DA06892B09F03FC017DF32C0B7
:1005D0008091D9069091DA06892B09F041C0C0E0DC
:1005E000D0E05BC08091D9069091DA06892B09F0A2
:1005F0004AC0C0E0D0E051C0C330D105D9F03CF4CE
:10060000C130D10561F0C230D105F9F046C0C43027
:10061000D105C9F1C530D10509F03FC021C045DF82
:10062000E9EDF6E080819181019791838083C1E0BB
:10063000D0E033C03ADFE9EDF6E0808191810197A7
:1006400091838083C3E0D0E028C044DFE9EDF6E089
:1006500080819181019791838083C2E0D0E01DC0A9
:100660008091DD06811102C020DF03C0813009F4D2
:1006700031DFE9EDF6E080819181019791838083FC
:10068000C5E0D0E00AC026DFE9EDF6E08081918187
:10069000019791838083C4E0D0E0CE01DF91CF91B8
:1006A00008958091D8066DEC869F612D1124669582
:1006B000669580E2689FB00111246D547D4F81E002
:1006C0005BCD089560E271E081E056CD08958091A0
:1006D000D8066DEC869F612D11246695669580E2A3
:1006E000689FB00111246D507E4F81E045CD089583
:1006F00061E471E081E040CD089562E571E081E060
:100700003BCD089563E771E081E036CD089569EE51
:1007100076E081E031CD089564E971E081E02CCD8F
:10072000089565EB71E081E027CD0895CF93DF93C5
:1007300000D01F92CDB7DEB780E090E0B1D34AE0A1
:1007400050E0BE016F5F7F4F90E06DD381EE94E08B
:100750000197F1F700C000008DE1E6EDF1E0A9EEB0
:10076000B6E001900D928A95E1F7BE016F5F7F4F71
:1007700089EE96E04DD3E9EEF6E001900020E9F72E
:10078000319783E790E0918380830F900F900F90D3
:10079000DF91CF910895CF93DF9300D01F92CDB713
:1007A000DEB78091D7064AE050E0BE016F5F7F4F11
:1007B00090E039D38DE1E6EDF1E0A9EEB6E00190ED
:1007C0000D928A95E1F7BE016F5F7F4F89EE96E04B
:1007D0001FD3E9EEF6E001900020E9F7319783E7B7
:1007E00090E0918380830F900F900F90DF91CF91D5
:1007F0000895CF93DF93EC0185E06CDC89EF90E006
:100800000197F1F700C00000C230D105B1F134F416
:10081000209781F0C130D105B1F0BCC0C530D10501
:1008200009F482C0C630D10509F488C0239709F0C5
:10083000B1C064C08091E306882309F4E3C058DFA7
:10084000C1E0D0E0DFC080917800909179008C32D7
:10085000914030F46EDC80E022DDC0E0D0E0D2C018
:100860008091E106882309F4CDC081E01EDD80E09F
:1008700022DD86E98093D8066BC080917800909144
:1008800079008C32914030F454DC80E00EDDC0E021
:10089000D0E0B8C08091E0068823F1F0C091D8067E
:1008A000CC2319F180E001DD80E038DD8DECC89FBC
:1008B000C12D1124C695C6958091D7068C1738F4A2
:1008C000C093D70689E18093D80617DF8CC089E1F1
:1008D0008093D806F7DE70C08091D806882329F06F
:1008E0008091DF06882309F46FC080E0DEDC80E0C1
:1008F00048DD89E18093D806EADE4FC08091D806B2
:10090000811171C06091D70680E090E0D1D281EE74
:1009100094E00197F1F700C000003DDF0ADC80E0C1
:10092000BEDCC0E0D0E06EC08091D806811144C02A
:1009300000DC80E0B4DCC0E0D0E064C08091D80688
:1009400081112BC0F6DB80E0AADCC0E0D0E05AC009
:10095000A8DE8091D80681508093D806C2E0D0E00E
:1009600051C0E7DB83EF91E00197F1F700C0000091
:10097000C4DE8091D80681508093D806C3E0D0E0D1
:1009800041C0A5DE8091D80681508093D806C6E08C
:10099000D0E038C0C0E0D0E035C09091D8068DECF2
:1009A000989F812D112486958695282F220F220F3E
:1009B000820F9813E7CFE5CF8091D80681508093BE
:1009C000D806C5E0D0E01EC09091D8068DEC989F67
:1009D000812D112486958695282F220F220F820FB4
:1009E0009813B7CFB5CF9091D8068DEC989F812DF5
:1009F000112486958695282F220F220F820F981397
:100A0000B8CFAFCFCE01DF91CF9108951092D70626
:100A100060E080E090E04CD281EE94E00197F1F745
:100A200000C00000B8CE08950F931F93CF93DF93BB
:100A3000EC01BBDB8C01C6DBC230D105B9F134F46B
:100A4000209769F0C130D10511F156C0C330D105EE
:100A500009F443C0C430D10509F446C04DC0013289
:100A6000134028F081E01BDCC4E0D0E047C08132B5
:100A700023E0920720F04BDEC1E0D0E03FC08C3293
:100A8000914008F03BC048DEC2E0D0E037C0813280
:100A900023E0920720F040DEC2E0D0E02FC08C328D
:100AA000914060F52FDEC0E0D0E028C00132134055
:100AB00028F0ACDF36DEC3E0D0E020C0813223E096
:100AC000920720F01FDEC0E0D0E018C08C329140C9
:100AD000A8F41DDEC1E0D0E011C00C32114070F46A
:100AE0001BDEC2E0D0E00AC08091E306811106C09F
:100AF00009DEC0E0D0E002C0C0E0D0E0CE01DF916E
:100B0000CF911F910F910895CF93DF93CDB7DEB7AB
:100B100060970FB6F894DEBF0FBECDBF11B88FEF50
:100B200082B984B915B887B918B88AB91BB81092B8
:100B3000E3061092E2061092E1061092E00610928F
:100B4000DF0618EC00E0F12CE12C5AE040E030E048
:100B500020E004C0162F072FF82EE92E652F742FE2
:100B6000832F922F212F302F4F2D5E2D2FD1512FDC
:100B7000402F3F2D2E2D611571058105910551F7EF
:100B80006894DD24D1F8C12CB12CA12C04C0D62E40
:100B9000C72EB82EA92E612F702F8F2D9E2D2D2D93
:100BA0003C2D4B2D5A2D12D11D2D0C2DFB2CEA2C3A
:100BB000611571058105910551F70F2EF4E6EF2EB1
:100BC000F02DF12C00E010E004C0E62EF72E082FE7
:100BD000192F6D2D7C2D8B2D9A2D2E2D3F2D402FD5
:100BE000512FF4D0DE2CCF2CB02EA12E6115710523
:100BF0008105910551F768EC70E080E090E02E2DC2
:100C00003F2D402F512FE2D02D873E874F87588BA5
:100C10006AE070E080E090E02E2D3F2D402F512FB4
:100C2000D5D049015A0162E070E080E090E02E2DBD
:100C30003F2D402F512FCAD029013A0164E670E0C0
:100C400080E090E02E2D3F2D402F512FBFD08CE023
:100C5000E4E1F1E0DE01119601900D928A95E1F751
:100C6000ECECF6E0108221833283438354832583A6
:100C700036834783508784E195E092878187E1EC52
:100C8000F6E010828D859E85AF85B8898183928339
:100C9000A383B48385839683A783B08789EF93E08A
:100CA00092878187E6EBF6E010824182528263826E
:100CB000748245825682678270868FE792E09287BF
:100CC0008187EBEAF6E0108281829282A382B4826D
:100CD00085829682A782B08681E691E0928781879D
:100CE000E0EAF6E0108281829282A382B482858259
:100CF0009682A782B08684E991E092878187E5E9B0
:100D0000F6E0108281829282A382B48285829682EA
:100D1000A782B08687EC91E092878187E0921001EC
:100D2000F09211010093120110931301E092E40676
:100D3000F092E5060093E6061093E70650DAC4D970
:100D400003DAE0DCF3DC6E019DE0C90ED11CDE01AC
:100D500011967D01F701019111917F01D80115963E
:100D60004D915D916D917C91189711968D919D910A
:100D70000D90BC91A02D481759076A077B0781F495
:100D8000F80180810184F285E02D082E000C990B7A
:100D90000995D8018C93F801158216821782108666
:100DA000F80185819681A781B0850196A11DB11DAD
:100DB00085839683A783B087EC14FD0459F6809150
:100DC000E8068823E1F31092E806C1CFA1E21A2ECB
:100DD000AA1BBB1BFD010DC0AA1FBB1FEE1FFF1FDF
:100DE000A217B307E407F50720F0A21BB30BE40B2F
:100DF000F50B661F771F881F991F1A9469F7609576
:100E00007095809590959B01AC01BD01CF0108952F
:100E1000FB01DC010D900020E9F7119701900D9284
:100E20000020E1F708954532510518F4423008F0EA
:100E300004C0FB011082CB010895BB274A3031F476
:100E4000992322F4BDE2909581959F4F01C0BB2765
:100E5000FB015527AA27880F991FAA1FA41710F076
:100E6000A41B83955051B9F7A05DAA3308F0A95D82
:100E7000A193009779F7B111B1931192CB0100C002
:100E8000DC01FC01672F71917723E1F7329704C0F1
:100E90007C916D9370836291AE17BF07C8F308957C
:100EA000F999FECF92BD81BDF89A992780B5089532
:100EB000262FF999FECF1FBA92BD81BD20BD0FB676
:100EC000F894FA9AF99A0FBE01960895F894FFCF14
:100ED00009080C040602030101030206040C0809B8
:100EE00001000000CC06AB06A0069506C106B606BA
:100EF000202D2D2057696E6E65722121202D2D2009
:100F0000436F6E67726174756C6174696F6E732183
:100F1000002020496E736572742042616C6C202041
:100F200020002D4E455720484947482053434F52F3
:100F3000452D436F6E67726174756C6174696F6E75
:100F40007321002020202D2D204D61696E202D2D34
:100F500020202020202D2D3E20546F2053746172BC
:100F600074202000526573657420486967682053B7
:100F7000636F726520202D2D3E20546F20526573C3
:100F80006574202000486967682053636F7265208C
:100F9000526573657420203C2D2D20546F205265BE
:100FA0007475726E20002D2D204849474820534308
:100FB0004F5245202D2D20426573742054696D6574
:100FC0003A2000202047616D65204F766572203AF7
:100FD00028202052657374617274696E6720302E08
:100FE0002E2E00202047616D65204F766572203AD5
:100FF00028202052657374617274696E6720312EE7
:101000002E2E00202047616D65204F766572203AB4
:1010100028202052657374617274696E6720322EC5
:101020002E2E00202047616D65204F766572203A94
:1010300028202052657374617274696E6720332EA4
:101040002E2E00202047616D65204F766572203A74
:1010500028202052657374617274696E6720342E83
:101060002E2E00202047616D65204F766572203A54
:1010700028202052657374617274696E6720352E62
:101080002E2E0054696D652052656D61696E696E22
:10109000673A2030207365636F6E64732E2E2E00C6
:1010A00000000054696D652052656D61696E696E5E
:1010B000673A2031207365636F6E64732E2E2E00A5
:1010C00000000054696D652052656D61696E696E3E
:1010D000673A2032207365636F6E64732E2E2E0084
:1010E00000000054696D652052656D61696E696E1E
:1010F000673A2033207365636F6E64732E2E2E0063
:1011000000000054696D652052656D61696E696EFD
:10111000673A2034207365636F6E64732E2E2E0041
:1011200000000054696D652052656D61696E696EDD
:10113000673A2035207365636F6E64732E2E2E0020
:1011400000000054696D652052656D61696E696EBD
:10115000673A2036207365636F6E64732E2E2E00FF
:1011600000000054696D652052656D61696E696E9D
:10117000673A2037207365636F6E64732E2E2E00DE
:1011800000000054696D652052656D61696E696E7D
:10119000673A2038207365636F6E64732E2E2E00BD
:1011A00000000054696D652052656D61696E696E5D
:1011B000673A2039207365636F6E64732E2E2E009C
:1011C00000000054696D652052656D61696E696E3D
:1011D000673A203130207365636F6E64732E2E2E54
:1011E00000000054696D652052656D61696E696E1D
:1011F000673A203131207365636F6E64732E2E2E33
:1012000000000054696D652052656D61696E696EFC
:10121000673A203132207365636F6E64732E2E2E11
:1012200000000054696D652052656D61696E696EDC
:10123000673A203133207365636F6E64732E2E2EF0
:1012400000000054696D652052656D61696E696EBC
:10125000673A203134207365636F6E64732E2E2ECF
:1012600000000054696D652052656D61696E696E9C
:10127000673A203135207365636F6E64732E2E2EAE
:1012800000000054696D652052656D61696E696E7C
:10129000673A203136207365636F6E64732E2E2E8D
:1012A00000000054696D652052656D61696E696E5C
:1012B000673A203137207365636F6E64732E2E2E6C
:1012C00000000054696D652052656D61696E696E3C
:1012D000673A203138207365636F6E64732E2E2E4B
:1012E00000000054696D652052656D61696E696E1C
:1012F000673A203139207365636F6E64732E2E2E2A
:1013000000000054696D652052656D61696E696EFB
:10131000673A203230207365636F6E64732E2E2E11
:1013200000000054696D652052656D61696E696EDB
:10133000673A203231207365636F6E64732E2E2EF0
:1013400000000054696D652052656D61696E696EBB
:10135000673A203232207365636F6E64732E2E2ECF
:1013600000000054696D652052656D61696E696E9B
:10137000673A203233207365636F6E64732E2E2EAE
:1013800000000054696D652052656D61696E696E7B
:10139000673A203234207365636F6E64732E2E2E8D
:1013A00000000054696D652052656D61696E696E5B
:1013B000673A203235207365636F6E64732E2E2E6C
:1013C00000000054696D652052656D61696E696E3B
:1013D000673A203236207365636F6E64732E2E2E4B
:1013E00000000054696D652052656D61696E696E1B
:1013F000673A203237207365636F6E64732E2E2E2A
:1014000000000054696D652052656D61696E696EFA
:10141000673A203238207365636F6E64732E2E2E08
:1014200000000054696D652052656D61696E696EDA
:10143000673A203239207365636F6E64732E2E2EE7
:1014400000000054696D652052656D61696E696EBA
:10145000673A203330207365636F6E64732E2E2ECF
:041460000000000088
:00000001FF
